:020000020000FC
:1000000008E00EBF0FEF0DBF00E204B92D9803B159
:100010000370003029F0013061F0023099F021C006
:100020001AE02D9A29D02D9827D01A95D1F70C9443
:1000300007001AE02D9A24D02D9822D01A95D1F7D6
:100040000C9407001AE02D9A000000000000000048
:100050002D9800000000000000001A95A1F70C94F4
:1000600007001AE02D9A000000002D980000000003
:100070001A95C1F70C9407002AE12A95F1F7089523
:0E0080000000000000000000000000000895D5
:00000001FF
